:020000040000FA
:100000000C94DB000C94D00D0C94A90D0C940301FE
:100010000C9403010C9403010C9403010C94030150
:100020000C9403010C9403010C9403010C94030140
:100030000C9403010C9403010C9403010C94030130
:100040000C945F0D0C9403010C942D0D0C94070D72
:100050000C9403010C9403010C9403010C94030110
:100060000C9403010C94030100407A10F35A00A091
:10007000724E18090010A5D4E80000E87648170071
:1000800000E40B54020000CA9A3B000000E1F505B1
:10009000000080969800000040420F000000A086FB
:1000A00001000000102700000000E803000000002D
:1000B0006400000000000A000000000001000000D1
:1000C00000002C76D888DC674F0823DFC1DFAE59EB
:1000D000E1B1B796E5E3E453C63AE651997696E87E
:1000E000E6C28426EB898C9B62ED407C6FFCEFBC02
:1000F0009C9F40F2BAA56FA5F490055A2AF75C932D
:100100006B6CF9676DC11BFCE0E40D47FEF520E662
:10011000B500D0ED902E0300943577050080841E45
:10012000080000204E0A000000C80C333333330FA0
:10013000986E12831141EF8D2114893BE65516CF3D
:10014000FEE6DB18D1844B381BF77C1D901DA4BB49
:10015000E424203284725E228100C9F124ECA1E5FE
:100160003D2700000000240027002A0000000000B6
:10017000250028002B0004040404040404040202E3
:100180000202020203030303030301020408102016
:100190004080010204081020010204081020000021
:1001A0000008000201000003040700000000000036
:1001B0000000F70DAA0F11241FBECFEFD8E0DEBF5D
:1001C000CDBF13E0A0E0B1E0E4E2FAE202C00590A6
:1001D0000D92AA36B107D9F724E0AAE6B3E001C030
:1001E0001D92A834B207E1F710E0CAEDD0E004C0D8
:1001F0002197FE010E940413C93DD107C9F70E944F
:10020000480E0C9405150C9400000895AF92BF920F
:10021000CF92DF92EF92FF920F931F93CF93DF93D2
:100220006C017B018B01040F151FEB015E01AE1801
:10023000BF08C017D10759F06991D601ED91FC9123
:100240000190F081E02DC6010995892B79F7C50150
:10025000DF91CF911F910F91FF90EF90DF90CF90A2
:10026000BF90AF900895FC014481558160817181F8
:1002700086E294E00C940601FC01538D448D252FF9
:1002800030E0842F90E0821B930B541710F0CF9630
:10029000089501970895FC01918D828D981761F062
:1002A000A28DAE0FBF2FB11D5D968C91928D9F5F79
:1002B0009F73928F90E008958FEF9FEF0895FC0158
:1002C000918D828D981731F0828DE80FF11D858D0B
:1002D00090E008958FEF9FEF0895FC01918D228D9E
:1002E000892F90E0805C9F4F821B91098F73992723
:1002F000089589E893E00E946D0121E0892B09F4BB
:1003000020E0822F089580E090E0892B29F00E9460
:10031000790181110C9400000895FC01A48DA80FAF
:10032000B92FB11DA35ABF4F2C91848D90E0019637
:100330008F739927848FA689B7892C93A089B18957
:100340008C91837080648C93938D848D981306C0F8
:100350000288F389E02D80818F7D80830895EF925C
:10036000FF920F931F93CF93DF93EC0181E0888F6F
:100370009B8D8C8D98131AC0E889F989808185FF3F
:1003800015C09FB7F894EE89FF896083E889F989E1
:1003900080818370806480839FBF81E090E0DF91E3
:1003A000CF911F910F91FF90EF900895F62E0B8D36
:1003B00010E00F5F1F4F0F731127E02E8C8D8E11F1
:1003C0000CC00FB607FCFACFE889F989808185FF58
:1003D000F5CFCE010E948D01F1CFEB8DEC0FFD2FFB
:1003E000F11DE35AFF4FF0829FB7F8940B8FEA8913
:1003F000FB8980818062CFCFCF93DF93EC01888D22
:100400008823B9F0AA89BB89E889F9898C9185FD8F
:1004100003C0808186FD0DC00FB607FCF7CF8C911D
:1004200085FFF2CF808185FFEDCFCE010E948D0147
:10043000E9CFDF91CF91089590E0FC01E256FE4FA5
:100440002491FC01E657FE4F3491FC01EA58FE4F1F
:10045000E491EE23C9F0222339F0233001F1A8F40E
:10046000213019F1223029F1F0E0EE0FFF1FE4599D
:10047000FE4FA591B4918FB7F894EC91611126C00D
:1004800030953E233C938FBF08952730A9F0283044
:10049000C9F0243049F7809180008F7D03C080919E
:1004A00080008F7780938000DFCF84B58F7784BD05
:1004B000DBCF84B58F7DFBCF8091B0008F778093A9
:1004C000B000D2CF8091B0008F7DF9CF3E2BDACF34
:1004D000CF93DF9390E0FC01E657FE4F24918A58BA
:1004E0009E4FFC0184918823D1F090E0880F991FE2
:1004F000FC01EE59FE4FA591B491FC01E459FE4F69
:10050000C591D491623071F49FB7F8943C91822FD9
:10051000809583238C93E8812E2B28839FBFDF91C6
:10052000CF9108958FB7F894EC912E2B2C938FBF19
:10053000F6CF8E50806480937C0080917A00806436
:1005400080937A0080917A0086FDFCCF80917800BC
:100550009091790008953FB7F89480918503909128
:100560008603A0918703B091880326B5A89B05C098
:100570002F3F19F00196A11DB11D3FBFBA2FA92F22
:10058000982F8827BC01CD01620F711D811D911D1F
:1005900042E0660F771F881F991F4A95D1F708958B
:1005A0008F929F92AF92BF92CF92DF92EF92FF9283
:1005B0004B015C010E94AB026B017C010E94AB020B
:1005C0006C197D098E099F09683E7340810591056C
:1005D000A8F321E0821A9108A108B10888EEC80E9C
:1005E00083E0D81EE11CF11C81149104A104B10424
:1005F00029F7FF90EF90DF90CF90BF90AF909F9042
:100600008F900895089590E080E00895CF93DF9350
:10061000EC0160E08E810E941C0261E08E810E94EC
:100620001C0260E08E810E941C028BE891E0019721
:10063000F1F7DF91CF910895CF92DF92EF92FF9281
:100640000F931F93CF93DF936C017C0187E0E80E3B
:10065000F11CD0E0C0E0062F10E0B8010C2E02C063
:10066000759567950A94E2F76170F70181917F01B2
:100670000E941C022196C430D10579F7C601DF9192
:10068000CF911F910F91FF90EF90DF90CF900C943E
:100690000603CF92DF92EF92FF920F931F93CF93B7
:1006A000DF93EC01F62E642F8C810E941C028D8159
:1006B0008F3F19F060E00E941C020F2D10E08F8523
:1006C00084FF25C06E0187E0C80ED11CF12CE12CFF
:1006D000B8010E2C02C0759567950A94E2F7617017
:1006E000F60181916F010E941C02FFEFEF1AFF0AD1
:1006F00088E0E816F10461F7CE01DF91CF911F91F8
:100700000F91FF90EF90DF90CF900C940603B8010B
:1007100084E0759567958A95E1F7CE010E941C03E8
:100720006F2DCE01DF91CF911F910F91FF90EF9030
:10073000DF90CF900C941C0340E0682F86E294E099
:100740000C944903CF93DF93613029F090913504E5
:100750009860909335046093390410923A0490E4C1
:1007600090933B0480933C04805C80933D0461E063
:1007700080912A040E94680280912B048F3F19F017
:1007800061E00E94680261E080912C040E9468028E
:10079000C6E2D4E09E01265234408091350484FDA7
:1007A0000BC084E090E021962817390744F461E0FB
:1007B0008E810E946802EECF88E090E0F4CF8BE358
:1007C0009DE00197F1F760E080912A040E941C02ED
:1007D00060E080912C040E941C0280912B048F3FCA
:1007E00019F060E00E941C028091350484FD39C03C
:1007F00063E086E294E00E941C03CBE4D6E4CE01E1
:100800000197F1F763E086E294E00E941C032197D0
:10081000F1F763E086E294E00E941C0383E592E036
:100820000197F1F762E086E294E00E941C03809158
:10083000350480620E949C0384E0809336048CE03F
:100840000E949C0381E00E949C038BE39FE101973F
:10085000F1F782E08093370486E0DF91CF910C942A
:100860009C0380620E949C038BE496E40197F1F75D
:100870008091350480620E949C0383E592E0019799
:10088000F1F78091350480620E949C03D0CF909153
:100890003904691710F06FEF690FE62FF0E0EA5D99
:1008A000FB4F9489890F80680C949C0341E00E945F
:1008B000490381E090E00895CF93DF93FC0101901C
:1008C0000020E9F73197AF01481B590BBC0189E8BB
:1008D00093E00E940601EC0142E050E068E271E022
:1008E00089E893E00E9406018C0F9D1FDF91CF9154
:1008F00008958FB7F89440918103509182036091DD
:100900008303709184038FBF8BE291E00C945C04AD
:10091000FC0124813581232B39F421E0FB01808106
:10092000882349F020E007C0808191810E94F5145E
:1009300021E0892BB9F7822F0895CF93DF93EC0143
:1009400068E571E00E948804811124C06DE571E0C2
:10095000CE010E948804811138C06BEE72E0CE0196
:100960000E948804811134C063EF71E0CE010E94BF
:100970008804811130C063E671E0CE010E948804D2
:10098000C4E6D0E0811108C061E084E0DF91CF913E
:100990000C941C02CAE0D0E060E084E00E941C02DB
:1009A00061E083E00E941C0261E086E00E941C027C
:1009B000BE01DD0F880B990B0E94D00260E083E03E
:1009C0000E941C0260E086E0E1CFC4EFD1E0E4CFFA
:1009D000C2E3D0E0E1CFCEE1D0E0DECFCF93DF9332
:1009E000EC0168E571E00E9488048823A9F08EE09C
:1009F0000E9499029C01ACE9BFEF0E94F5122FEF13
:100A000033E040E050E00E946912CA01B9016C591C
:100A10007F4F8F4F9F4F1BC063E671E0CE010E9456
:100A200088048823C9F081E10E94990224E130E022
:100A3000DC010E94FD122FEF33E040E050E00E9405
:100A40006912CA01B901675E7F4F8F4F9F4F0E94A5
:100A50000A12DF91CF9108956BEE72E0CE010E94F1
:100A60008804882311F080E1C3CF63EF71E0CE01E9
:100A70000E9488048823A9F08FE00E94990228E749
:100A800030E0DC010E94FD122FEF33E040E050E047
:100A90000E946912CA01B901605B7F4F8F4F9F4F5F
:100AA000D6CFD7CF0F931F93CF93DF938C01EB015A
:100AB00086179707D1F0FC01808191810097E9F0BA
:100AC0006881798161157105B1F0428153812C8172
:100AD0003D814217530778F00E94FE148C819D815E
:100AE000F801958384831D821C82C801DF91CF9118
:100AF0001F910F9108950E94A61388819981F80192
:100B0000918380838A819B81938382838C819D8161
:100B100095838483198218821B821A82E4CFCF9333
:100B2000DF93EC0188819981009711F00E94A61350
:100B3000198218821D821C821B821A82DF91CF913A
:100B40000895FC0180819181009711F00C94A61307
:100B500008950F931F93CF93DF93EC0188819981C0
:100B6000009759F02A813B812617370730F081E042
:100B7000DF91CF911F910F9108958B016F5F7F4F90
:100B80000E942F14009759F0998388831B830A834E
:100B90002C813D81232B59F7FC011082E8CF80E0A6
:100BA000E7CFEF92FF920F931F93CF93DF936115DF
:100BB000710541F480E0DF91CF911F910F91FF907B
:100BC000EF90089541155105B1F07B01EC010C81C6
:100BD0001D81040F151FB8010E94A905882351F338
:100BE000288139818C819D81B701820F931F0E94DA
:100BF000FE141D830C8381E0DECFCF93DF93EC01E5
:100C0000FB0101900020E9F73197AF01461B570B1C
:100C10000E94D105811103C0CE010E948F05CE0133
:100C2000DF91CF910895CF93DF93EC01FB014481D5
:100C30005581608171810E94D105811103C0CE016F
:100C40000E948F05CE01DF91CF910895EF92FF9220
:100C50000F931F93CF93DF93EC017B018A01BA01BD
:100C60000E94A90581110BC0CE010E948F05CE0103
:100C7000DF91CF911F910F91FF90EF9008951D8309
:100C80000C83B701888199810E94FE14F0CFEF9206
:100C9000FF920F931F93CF93DF93CDB7DEB7A1974A
:100CA0000FB6F894DEBF0FBECDBF7C01CB01BA01F9
:100CB000F7011182108213821282158214828E0132
:100CC0000F5F1F4F22E044E00E94AE0F0097C9F073
:100CD000FC0101900020E9F73197AF01481B590B47
:100CE000BC01C7010E942606A1960FB6F894DEBF8C
:100CF0000FBECDBFDF91CF911F910F91FF90EF906D
:100D00000895C7010E948F05EFCFFB01DC0111960A
:100D10001C921E9213961C921E92129715961C926C
:100D20001E9214978617970749F0608171816115AB
:100D3000710521F0448155810C9426060895FC012B
:100D4000118210821382128215821482FB0101909B
:100D50000020E9F73197AF01461B570B0C9426068C
:100D6000CF92DF92EF92FF920F931F93CF93DF9377
:100D70008C017B016A016AE271E00E949F06D70143
:100D800014968D919C91009719F1E6018C159D05A3
:100D900008F4EC01D701ED91FC911197EC0FFD1FC8
:100DA000D08010826D917C9161157105D9F0FB01A5
:100DB00001900020E9F73197AF01461B570BC8019E
:100DC0000E942606F70180819181C80FD91FD88221
:100DD000C801DF91CF911F910F91FF90EF90DF90AD
:100DE000CF900895C8010E948F05ECCF2F923F92BB
:100DF0004F925F926F927F928F929F92AF92BF922B
:100E0000CF92DF92EF92FF920F931F93CF93DF93D6
:100E1000CDB7DEB72C970FB6F894DEBF0FBECDBFAF
:100E20005C016B017A018901FC0184819581459700
:100E3000E0F0B501CE0101960E94850644E150E044
:100E4000BE016F5F7F4FCE0107960E94B006BE01C4
:100E5000695F7F4FC5010E945205CE0107960E942F
:100E6000A105CE0101960E94A105F601848195811C
:100E70004597E0F0B601CE0101960E94850644E157
:100E800050E0BE016F5F7F4FCE0107960E94B00613
:100E9000BE01695F7F4FC6010E945205CE010796D1
:100EA0000E94A105CE0101960E94A105F70184814F
:100EB00095814597E0F0B701CE0101960E94850625
:100EC00044E150E0BE016F5F7F4FCE0107960E9464
:100ED000B006BE01695F7F4FC7010E945205CE0177
:100EE00007960E94A105CE0101960E94A105F80176
:100EF000848195814597E0F0B801CE0101960E946A
:100F0000850644E150E0BE016F5F7F4FCE0107963A
:100F10000E94B006BE01695F7F4FC8010E94520562
:100F2000CE0107960E94A105CE0101960E94A1055F
:100F300084E190E0F501248135814C01821A930A05
:100F400096948794F601248135813C01621A730AD4
:100F500076946794F701248135812C01421A530A53
:100F600056944794F801248135811C01221A330AD2
:100F70003694279481E00E949C038BE39FE10197C4
:100F8000F1F760E0882D0E944704C5010E943301FB
:100F900061E0862D0E944704C6010E94330162E091
:100FA000842D0E944704C7010E94330163E0822D13
:100FB0000E944704C8010E94330164E670E080E0AB
:100FC00090E00E94D0022C960FB6F894DEBF0FBEC0
:100FD000CDBFDF91CF911F910F91FF90EF90DF90E8
:100FE000CF90BF90AF909F908F907F906F905F90C9
:100FF0004F903F902F9008958F929F92AF92BF9203
:10100000CF92DF92EF92FF92CF93DF93CDB7DEB70F
:10101000C254D1090FB6F894DEBF0FBECDBF68E54C
:1010200071E0CE0101960E949F06CE0101960E94BA
:10103000EE046B017C01C0927C03D0927D03E092B0
:101040007E03F0927F03CE0101960E94A10563E624
:1010500071E0CE0101960E949F06CE0101960E948A
:10106000EE04609378037093790380937A039093EE
:101070007B03CE0101960E94A1056BEE72E0CE01CA
:1010800001960E949F06CE0101960E94EE04609395
:101090007403709375038093760390937703CE0166
:1010A00001960E94A10563EF71E0CE0101960E94B6
:1010B0009F06CE0101960E94EE044B015C018092D6
:1010C000700390927103A0927203B0927303CE01E9
:1010D00001960E94A10520E030E040EA52E4C501FB
:1010E000B4010E94031287FFCDC020E030E04AEA3D
:1010F00052E4C701B6010E94031287FFC3C081E01A
:1011000080936F0380916F03882309F4BEC06FE65C
:1011100071E0CE0143960E949F0662E871E0CE0125
:101120000D960E949F066EE374E0CE0107960E9422
:10113000850662E971E0CE0101960E949F069E013C
:101140002D5E3F4FAE01435F5F4FBE01695F7F4F32
:10115000CE0101960E94F606CE0101960E94A105DD
:10116000CE0107960E94A105CE010D960E94A10511
:10117000CE0143960E94A10568EC70E080E090E00B
:101180000E94D00240917C0350917D0360917E03C8
:1011900070917F03CE0185960E9447066CE971E04D
:1011A000CE014F960E949F06BE016B5D7F4FCE0120
:1011B0004F960E94130663EA71E00E94FD05BC0190
:1011C000CE018B960E948506409170035091710369
:1011D0006091720370917303CE0143960E9447069B
:1011E00065EA71E0CE010D960E949F06BE016D5E1C
:1011F0007F4FCE010D960E9413066CEA71E00E94AB
:10120000FD05BC01CE0149960E94850660EB71E0A8
:10121000CE0107960E949F0662E971E0CE01019619
:101220000E949F069E01255D3F4FAE01475E5F4FC6
:10123000BE01695F7F4FCE0101960E94F606CE0186
:1012400001960E94A105CE0107960E94A105CE013C
:1012500049960E94A105CE010D960E94A105CE01DE
:1012600043960E94A105CE018B960E94A105CE0156
:101270004F960E94A105CE0185960E94A10510926D
:101280006E0394C210926F033DCF81E080936D0393
:1012900080936C0380936B0380936A0320E030E0BB
:1012A0004CEB52E4C701B6010E94031287FF63C0F2
:1012B00068E571E0CE0101960E949F06CE0101967D
:1012C0000E949D04CE0101960E94A105B701A601CE
:1012D000CE0149960E9447066CE971E0CE01439623
:1012E0000E949F06BE01675E7F4FCE0143960E941B
:1012F000130663EA71E00E94FD05BC01CE014F9622
:101300000E94850666EB71E0CE010D960E949F0655
:1013100066EC71E0CE0107960E949F0662E971E0DB
:10132000CE0101960E949F069E01215E3F4FAE01B5
:10133000435F5F4FBE01695F7F4FCE0101960E9400
:10134000F606CE0101960E94A105CE0107960E94E5
:10135000A105CE010D960E94A105CE014F960E94D7
:10136000A105CE0143960E94A105CE0149960E9497
:10137000A10510926B03C0907003D0907103E090B0
:101380007203F090730320E030E04CEC52E4C701AC
:10139000B6010E94031287FD0BC020E030E044E25A
:1013A00053E4C701B6010E94F01218160CF0AAC04F
:1013B00063EF71E0CE0101960E949F06CE01019677
:1013C0000E949D04CE0101960E94A10568ED71E086
:1013D000CE0143960E949F066BEE71E0CE010D9602
:1013E0000E949F066EE374E0CE0107960E94850678
:1013F00062E971E0CE0101960E949F069E012D5E7A
:101400003F4FAE01435F5F4FBE01695F7F4FCE012B
:1014100001960E94F606CE0101960E94A105CE011A
:1014200007960E94A105CE010D960E94A105CE014E
:1014300043960E94A105C0907003D0907103E09084
:101440007203F090730320E030E04CEC52E4C701EB
:10145000B6010E94031287FF7AC2B701A601CE012E
:1014600049960E9447066EEF71E0CE0143960E94B6
:101470009F06BE01675E7F4FCE0143960E94130612
:101480006CEA71E00E94FD05BC01CE014F960E94FE
:10149000850665E072E0CE010D960E949F0667E129
:1014A00072E0CE0107960E949F0662E971E0CE01CC
:1014B00001960E949F069E01215E3F4FAE01435F51
:1014C0005F4FBE01695F7F4FCE0101960E94F60615
:1014D000CE0101960E94A105CE0107960E94A105AA
:1014E000CE010D960E94A105CE014F960E94A10546
:1014F000CE0143960E94A105CE0149960E94A10506
:1015000010926C03C0907803D0907903E0907A0336
:10151000F0907B032AE939E941E152E4C701B601C1
:101520000E94031287FD0BC026E636E646E152E430
:10153000C701B6010E94F01218160CF0AAC063E6AB
:1015400071E0CE0101960E949F06CE0101960E9495
:101550009D04CE0101960E94A10568ED71E0CE01C7
:1015600043960E949F0663E572E0CE010D960E94AD
:101570009F066EE374E0CE0107960E94850665E63D
:1015800072E0CE0101960E949F069E012D5E3F4FA4
:10159000AE01435F5F4FBE01695F7F4FCE01019691
:1015A0000E94F606CE0101960E94A105CE01079683
:1015B0000E94A105CE010D960E94A105CE01439681
:1015C0000E94A105C0907803D0907903E0907A033F
:1015D000F0907B032AE939E941E152E4C701B60101
:1015E0000E94031287FFE3C1B701A601CE0149960D
:1015F0000E9447066EE672E0CE0143960E949F0667
:10160000BE01675E7F4FCE0143960E94130665E7D9
:1016100072E00E94FD05BC01CE014F960E94850636
:1016200068E772E0CE010D960E949F066AE872E0BC
:10163000CE0107960E949F0665E672E0CE010196F4
:101640000E949F069E01215E3F4FAE01435F5F4FA8
:10165000BE01695F7F4FCE0101960E94F606CE0162
:1016600001960E94A105CE0107960E94A105CE0118
:101670000D960E94A105CE014F960E94A105CE01B4
:1016800043960E94A105CE0149960E94A1051092A1
:101690006D03C0907403D0907503E0907603F090D2
:1016A000770320E030E04CE852E4C701B6010E9425
:1016B000F01218160CF063C06BEE72E0CE010196CA
:1016C0000E949F06CE0101960E949D04CE010196C4
:1016D0000E94A105B701A601CE0149960E944706C6
:1016E00066EC72E0CE0143960E949F06BE01675EE3
:1016F0007F4FCE0143960E94130663EA71E00E9479
:10170000FD05BC01CE014F960E94850661ED72E099
:10171000CE010D960E949F0664EE72E0CE01079600
:101720000E949F0662E971E0CE0101960E949F0629
:101730009E01215E3F4FAE01435F5F4FBE01695F77
:101740007F4FCE0101960E94F606CE0101960E94BF
:10175000A105CE0107960E94A105CE010D960E941B
:10176000A105CE014F960E94A105CE0143960E948D
:10177000A105CE0149960E94A10510926A038091AD
:101780006D03882309F47BCD80916C03882309F4D1
:1017900076CD80916B03882309F471CD80916A0323
:1017A000882309F46CCD81E080936E0380916E03F1
:1017B000882309F4BAC04091740350917503609175
:1017C000760370917703CE01C7960E944706409139
:1017D00078035091790360917A0370917B03CE0175
:1017E000C1960E94470664EF72E0CE018B960E947C
:1017F0009F06BE016F5C7F4FCE018B960E94130641
:1018000067EF72E00E94FD05BE01695C7F4F0E9498
:10181000130663EA71E00E94FD05BC01CE01CD967E
:101820000E94850640917C0350917D0360917E0368
:1018300070917F03CE014F960E9447066CE971E0DC
:10184000CE0149960E949F06BE01615E7F4FCE0188
:1018500049960E94130663EA71E00E94FD05BC01EF
:10186000CE0185960E9485064091700350917103C8
:101870006091720370917303CE010D960E9447062A
:1018800065EA71E0CE0107960E949F06BE01635F84
:101890007F4FCE0107960E9413066CEA71E00E940A
:1018A000FD05BC01CE0143960E9485066EEF72E0F5
:1018B000CE0101960E949F069E01235C3F4FAE0120
:1018C0004B5D5F4FBE016D5E7F4FCE0101960E9462
:1018D000F606CE0101960E94A105CE0143960E9414
:1018E000A105CE0107960E94A105CE010D960E948A
:1018F000A105CE0185960E94A105CE0149960E94C0
:10190000A105CE014F960E94A105CE01CD960E9461
:10191000A105CE018B960E94A105CE01C1960E9421
:10192000A105CE01C7960E94A105CE5BDF4F0FB681
:10193000F894DEBF0FBECDBFDF91CF91FF90EF9047
:10194000DF90CF90BF90AF909F908F90089520E050
:1019500030E044E253E4C701B6010E94F0121816C9
:101960000CF0CECDB701A601CE0149960E944706E4
:101970006EEF71E0CE0143960E949F06BE01675E46
:101980007F4FCE0143960E9413066CEA71E00E94DD
:10199000FD05BC01CE014F960E9485066CE272E007
:1019A000CE010D960E949F066EE372E07ACD26E688
:1019B00036E646E152E4C701B6010E94F01218165D
:1019C0000CF065CEB701A601CE0149960E944706EC
:1019D0006EE672E0CE0143960E949F06BE01675EEE
:1019E0007F4FCE0143960E94130665E772E00E9486
:1019F000FD05BC01CE014F960E9485066FE972E09D
:101A0000CE010D960E949F0661EB72E011CE1F92EF
:101A10000F920FB60F9211242F933F934F935F9322
:101A20006F937F938F939F93AF93BF93EF93FF93A6
:101A300089E893E00E948D01FF91EF91BF91AF91F2
:101A40009F918F917F916F915F914F913F912F91D6
:101A50000F900FBE0F901F9018951F920F920FB608
:101A60000F9211242F938F939F93EF93FF93E09105
:101A70009903F0919A038081E0919F03F091A00374
:101A800082FD1BC090818091A2038F5F8F73209194
:101A9000A303821741F0E091A203F0E0E757FC4F67
:101AA000958F8093A203FF91EF919F918F912F913A
:101AB0000F900FBE0F901F9018958081F4CF1F924A
:101AC0000F920FB60F9211242F933F938F939F93F2
:101AD000AF93BF938091810390918203A091830380
:101AE000B09184033091800323E0230F2D3758F504
:101AF0000196A11DB11D20938003809381039093D3
:101B00008203A0938303B093840380918503909113
:101B10008603A0918703B09188030196A11DB11D92
:101B20008093850390938603A0938703B0938803E3
:101B3000BF91AF919F918F913F912F910F900FBEC9
:101B40000F901F90189526E8230F0296A11DB11D36
:101B5000D2CF1F920F920FB60F9211242F933F9363
:101B60004F935F936F937F938F939F93AF93BF93A5
:101B7000EF93FF93E0910201F09103010995FF912A
:101B8000EF91BF91AF919F918F917F916F915F91F5
:101B90004F913F912F910F900FBE0F901F9018956E
:101BA0001F920F920FB60F9211242F933F934F93D2
:101BB0005F936F937F938F939F93AF93BF93EF93B5
:101BC000FF93E0910001F09101010995FF91EF91E0
:101BD000BF91AF919F918F917F916F915F914F9145
:101BE0003F912F910F900FBE0F901F901895E9E82D
:101BF000F3E01382128288EE93E0A0E0B0E08483E9
:101C00009583A683B7838EE091E09183808385ECF2
:101C100090E09587848784EC90E09787868780ECB6
:101C200090E0918B808B81EC90E0938B828B82ECA7
:101C300090E0958B848B86EC90E0978B868B118E51
:101C4000128E138E148E64E573E08EE394E00E948E
:101C50009F06E6E2F4E01382128280E291E0918333
:101C600080838DE084838FEF85838CE086838BE097
:101C700087838AE0808789E0818788E0828713866E
:101C8000148615861686178661E080E10C94A203FF
:101C9000CF93DF93CDB7DEB768970FB6F894DEBF6A
:101CA0000FBECDBF789484B5826084BD84B5816059
:101CB00084BD85B5826085BD85B5816085BD809117
:101CC0006E00816080936E0010928100809181008F
:101CD0008260809381008091810081608093810087
:101CE000809180008160809380008091B100846049
:101CF0008093B1008091B00081608093B0008091AA
:101D00007A00846080937A0080917A008260809368
:101D10007A0080917A00816080937A0080917A00C5
:101D2000806880937A001092C10062E082E00E9495
:101D3000680261E083E00E94680261E084E00E9442
:101D4000680261E086E00E946802E0919903F091E8
:101D50009A0382E08083E0919503F09196031082CC
:101D6000E0919703F09198038FEC80831092A10388
:101D7000E0919D03F0919E0386E08083E0919B03B8
:101D8000F0919C03808180618083E0919B03F091BE
:101D90009C03808188608083E0919B03F0919C0389
:101DA000808180688083E0919B03F0919C03808117
:101DB0008F7D808364E084E10E94A20389E794E040
:101DC0009093010180930001809169008C7F826073
:101DD00080936900E89A87E093E00E945C046AE2DD
:101DE00071E0CE0101960E949F066AE271E0CE0189
:101DF00007960E949F066EE173E0CE010D960E9449
:101E00009F066AE271E0CE0143960E949F069E0102
:101E10002F5F3F4FAE01495F5F4FBE01635F7F4F52
:101E2000CE0143960E94F606CE0143960E94A1057C
:101E3000CE010D960E94A105CE0107960E94A10534
:101E4000CE0101960E94A1056AE271E0CE010196E1
:101E50000E949F0666E273E0CE0107960E949F06ED
:101E60006DE273E0CE010D960E949F066AE271E07A
:101E7000CE0143960E949F069E012F5F3F4FAE0109
:101E8000495F5F4FBE01635F7F4FCE0143960E9463
:101E9000F606CE0143960E94A105CE010D960E9442
:101EA000A105CE0107960E94A105CE0101960E94D0
:101EB000A1056AE271E0CE0101960E949F066AE2E6
:101EC00071E0CE0107960E949F0663E373E0CE01A6
:101ED0000D960E949F066AE271E0CE0143960E9431
:101EE0009F069E012F5F3F4FAE01495F5F4FBE01CE
:101EF000635F7F4FCE0143960E94F606CE01439664
:101F00000E94A105CE010D960E94A105CE01079663
:101F10000E94A105CE0101960E94A10582E493E0F2
:101F20000E945C0487E493E00E945C0400E010E0FF
:101F30000E94FC0764E670E080E090E00E94D0021E
:101F400001151105A9F30E947901882389F30E94E4
:101F50000000EECF8EE394E00C94A105EF920F9376
:101F60001F93CF93DF93E80134E047FD34E1042E63
:101F7000000C550B57FF03C0519541955109E32EB5
:101F8000022F242FAE010E94CC0FCE01DF91CF9102
:101F90001F910F91EF900895A9E0B0E0E2EDFFE00E
:101FA0000C948E126A01F22EB02E102FFBE3AF2E8E
:101FB000A01608F41BE31F5F012F27E0AE014F5F5F
:101FC0005F4F0E942B11BC018981982F997091302D
:101FD00009F43FC09BE2E1FC04C09E2D9170E0FC3F
:101FE0003AC05E2D5071E82FE87083FF46C084E050
:101FF000911101C083E0EF2DE81B8F1508F0E0E0A0
:10200000D6018E2F20E2552351F1992329F0D601D4
:102010009C93C60101966C0196012D5F3F4FE2FE35
:1020200024C08EE4D6018C9391E411969C93119771
:1020300012968C93D9018E2F90E281111BC0E20F72
:10204000F32FF11D10828EEF9FEF2996ECE00C9498
:10205000AA129DE2C6CF90E2C4CF2D938150811188
:10206000FCCFCE0ED11CE0E0D0CF8EE6D6018C9313
:1020700091E6DBCF9D938150E0CF482F447082FFE3
:102080003DC084E0911101C083E08F1510F4EF2D65
:10209000E81BD6018E2F20E2552309F1992329F060
:1020A000D6019C93C60101966C0196012D5F3F4FAE
:1020B000E2FE1BC089E4D6018C938EE411968C93CA
:1020C000119786E412968C93D9018E2F90E2882383
:1020D00009F4B5CF9D938150FACF2D938150811192
:1020E000FCCFCE0ED11CE0E0D9CF89E6D6018C938F
:1020F0008EE611968C93119786E6E4CF9B0177FFCD
:1021000002C030E020E0A1E0B0E0911102C0B0E0F8
:10211000A0E0F9013196AE0FBF1F8B2C912CBB2094
:1021200009F461C05401EFEFAE1ABE0AAA0DBB1D3F
:10213000FA161B0619F014F04F2D4A1B511188C0D6
:10214000E3FC59C07601A42FB0E2A1114FC0C40E28
:10215000D11C992309F45BC040E0D6011196F60129
:1021600090836D01552309F448C0012F060F9A8111
:10217000582F507184FF03C0913309F40150101699
:102180000CF047C0093008F008E0EEE2FE2E5B01DB
:10219000A01AB10885019194819491082F3F3207CC
:1021A00029F4D601FC92F60131966F01621773078C
:1021B00094F1021713077CF5DB01A21BB30BAA24D1
:1021C000A394B12CAC0EBD1EAA0DBB1D11968C9113
:1021D00021503109D601119628153905F4F0F60180
:1021E00080836D01DBCFB12CA12CA0CFF701B1937F
:1021F0007F01A150AACF9111B0CFD601942F50E307
:1022000002C05D9391509111FCCFC40ED11C40E0EF
:10221000ACCF01E0BACF80E3DBCF6217730731F4B4
:10222000963388F4953311F4552369F0F6018083D1
:10223000FD01842F90E2811108C0A40FB11D1C92F2
:1022400090E080E002CF81E3F1CF91938150F3CF12
:10225000911183CF8ACF283008F027E03327DA01A5
:10226000990F311D87FD916000966105710539F464
:1022700032602E5F3D9330E32A95E1F708959F3F4A
:1022800030F080387105610509F03C5F3C5F3D939B
:10229000913008F08068911DDF93CF931F930F93C7
:1022A000FF92EF92192F987F9695E92F9695969524
:1022B000E90FFF27EE53FF4F99273327EE24FF2422
:1022C000A701E70105900894079428F4360FE71E4C
:1022D000F81E491F511D660F771F881F991F06940E
:1022E000A1F70590079428F4E70EF81E491F561F22
:1022F000C11D770F881F991F661F0694A1F70590CF
:10230000079428F4F80E491F561FC71FD11D880FC8
:10231000991F661F771F0694A1F70590079420F474
:10232000490F561FC71FD81F990F661F771F881F99
:102330000694A9F784911095177041F0D695C7952A
:1023400057954795F794E7941A95C1F7E8E6F0E0BA
:1023500068941590159135916591959105907FE25E
:102360007395E118F10A430B560BC90BD009C0F75E
:10237000E10CF11E431F561FC91FD01D7EF47033A0
:1023800011F48A95E6CFE894015030F0080F0AF472
:102390000027021708F4202F2395022F7A3328F004
:1023A00079E37D932A95E9F710C07D932A9589F604
:1023B000069497956795379517951794E118F10A44
:1023C000430B560BC90BD00998F023957E9173955A
:1023D0007A3308F070E37C932013B8F77E91706134
:1023E0007D9330F0839571E37D9370E32A95E1F757
:1023F0001124EF90FF900F911F91CF91DF919927BA
:1024000087FD909508950E94451208F481E0089593
:10241000E89409C097FB3EF490958095709561957E
:102420007F4F8F4F9F4F9923A9F0F92F96E9BB2734
:102430009395F695879577956795B795F111F8CFB0
:10244000FAF4BB0F11F460FF1BC06F5F7F4F8F4F1B
:102450009F4F16C0882311F096E911C0772321F011
:102460009EE8872F762F05C0662371F096E8862FA9
:1024700070E060E02AF09A95660F771F881FDAF700
:10248000880F9695879597F90895990F0008550F2D
:10249000AA0BE0E8FEEF16161706E807F907C0F0EA
:1024A00012161306E407F50798F0621B730B840BF2
:1024B000950B39F40A2661F0232B242B252B21F4CC
:1024C00008950A2609F4A140A6958FEF811D811D6C
:1024D0000895052E97FB1EF400940E94801257FD6C
:1024E00007D00E94BF1207FC03D04EF40C94801258
:1024F00050954095309521953F4F4F4F5F4F089530
:1025000090958095709561957F4F8F4F9F4F08955F
:102510002F923F924F925F926F927F928F929F92F3
:10252000AF92BF92CF92DF92EF92FF920F931F93E1
:10253000CF93DF93CDB7DEB7CA1BDB0B0FB6F89492
:10254000DEBF0FBECDBF09942A88398848885F84D2
:102550006E847D848C849B84AA84B984C884DF8043
:10256000EE80FD800C811B81AA81B981CE0FD11D27
:102570000FB6F894DEBF0FBECDBFED010895A1E206
:102580001A2EAA1BBB1BFD010DC0AA1FBB1FEE1FED
:10259000FF1FA217B307E407F50720F0A21BB30B38
:1025A000E40BF50B661F771F881F991F1A9469F7B4
:1025B00060957095809590959B01AC01BD01CF0110
:1025C0000895A29FB001B39FC001A39F700D811D0C
:1025D0001124911DB29F700D811D1124911D08952C
:1025E0000E94451208F48FEF08950E94E1123323F0
:1025F00012F48A1B9B0B0C94FF120E94E112B7FF8E
:102600000895821B930B0895EE0FFF1F0590F49120
:10261000E02D09940F931F93CF93DF9382309105A0
:1026200010F482E090E0E0914604F091470430E03D
:1026300020E0B0E0A0E0309799F42115310509F4CD
:102640004AC0281B390B24303105D8F58A819B817B
:102650006115710589F1FB0193838283FE0111C02D
:10266000408151810281138148175907E0F04817D2
:10267000590799F4109761F012960C9312971396DC
:102680001C933296CF01DF91CF911F910F91089546
:102690000093460410934704F4CF2115310551F0FF
:1026A0004217530738F0A901DB019A01BD01DF0190
:1026B000F801C1CFEF01F9CF90934704809346040E
:1026C000CDCFFE01E20FF31F819391932250310988
:1026D00039832883D7CF2091440430914504232B9C
:1026E00041F4209106013091070130934504209375
:1026F000440420910401309105012115310541F474
:102700002DB73EB74091080150910901241B350BAC
:10271000E0914404F0914504E217F307A0F42E1B66
:102720003F0B2817390778F0AC014E5F5F4F241735
:10273000350748F04E0F5F1F509345044093440403
:10274000819391939FCFF0E0E0E09CCFCF93DF9314
:102750000097E9F0FC01329713821282A09146049F
:10276000B0914704ED0130E020E01097A1F4208102
:102770003181820F931F2091440430914504281722
:10278000390709F061C0F0934504E0934404DF91F8
:10279000CF910895EA01CE17DF07E8F54A815B8102
:1027A0009E0141155105B1F7E901FB83EA83499187
:1027B0005991C40FD51FEC17FD0761F480819181F9
:1027C0000296840F951FE901998388838281938102
:1027D0009B838A83F0E0E0E012968D919C911397A1
:1027E0000097B9F52D913C911197CD010296820F7A
:1027F000931F20914404309145042817390739F676
:10280000309751F51092470410924604B093450456
:10281000A0934404BCCFD383C28340815181840FF1
:10282000951FC817D90761F44E5F5F4F8881998162
:10283000480F591F518340838A819B8193838283F0
:102840002115310509F0B0CFF0934704E093460419
:102850009ECFFD01DC01C0CF13821282D7CFB0E042
:10286000A0E0E5E3F4E10C948A128C01009751F4A6
:10287000CB010E940A138C01C801CDB7DEB7E0E19D
:102880000C94A612FC01E60FF71F9C01225031099F
:10289000E217F30708F49DC0D901CD91DC9111979F
:1028A000C617D70798F0C530D10530F3CE0104978D
:1028B0008617970708F3C61BD70B2297C193D193AE
:1028C0006D937C93CF010E94A613D6CF5B01AC1A07
:1028D000BD0A4C018C0E9D1EA0914604B091470488
:1028E000512C412CF12CE12C109731F580914404AE
:1028F000909145048815990509F05CC04616570665
:1029000008F058C08091040190910501009741F4AE
:102910008DB79EB74091080150910901841B950B1A
:10292000E817F90708F055C0F0934504E093440414
:10293000F90171836083A0CF8D919C9111971296BC
:102940006C90129713967C901397A815B90559F5BA
:102950006C0142E0C40ED11CCA14DB0420F1AC01AE
:102960004A195B09DA011296159780F06282738228
:1029700051834083D9016D937C93E114F10471F08C
:10298000D7011396FC93EE93129776CF22968C0F75
:102990009D1FF90191838083F301EFCFF0934704EA
:1029A000E093460469CF4816590608F42C017D01CE
:1029B000D3019ACFCB010E940A137C01009749F002
:1029C000AE01B8010E94EC14C8010E94A613870151
:1029D00053CF10E000E050CFFB01DC0102C00190BA
:1029E0000D9241505040D8F70895FB01DC018D91C4
:1029F000019080190110D9F3990B0895FB01DC01B6
:102A000001900D920020E1F7089510E0CAEDD0E0AA
:102A100004C0FE010E9404132196CB3DD107C9F7E3
:102A2000F894FFCF02030203000048048000000076
:102A30000000AF0106013C01FC016D014B015F018B
:102A40000000000056040601030305010D0A0053AF
:102A50007461727420636F756E74696E6720746937
:102A60006D6520666F7220616E6F74686572206696
:102A7000656564696E672074696D650073706F3297
:102A80000061706E65610074656D7065726174756A
:102A9000726500706C656173652074616B6520619F
:102AA0006374696F6E0041504E454120636F6E64E0
:102AB0006974696F6E005741524E494E473A200083
:102AC00053504F323A20002500426974733A200077
:102AD00062706D0041504E45410069732062656C23
:102AE0006F77206E6F726D616C004F787967656EDD
:102AF0002073617475726174696F6E00506C6561EA
:102B000073652074616B6520616374696F6E004149
:102B1000626E6F6D616C20686561727420726174A1
:102B20006500526174653A2000746865206D696EB5
:102B3000696D756D206C6576656C004865617274B1
:102B40002062656174732069732062656C6F770021
:102B5000746865206D6178696D756D206C6576654A
:102B60006C004865617274206265617473206973DA
:102B70002061626F76650041626E6F6D616C2074DA
:102B8000656D706574757265005741524E494E47C8
:102B90003A0054656D703A20002043007468652047
:102BA0006D696E696D756D2076616C756500546533
:102BB0006D70657261747572652069732062656CF1
:102BC0006F7700746865206D6178696D756D20762A
:102BD000616C75650054656D7065726174757265C0
:102BE0002069732061626F766500436F6E74656E55
:102BF00074733A200061626F7665206E6F726D614A
:102C00006C206C6576656C00446574656374206D3A
:102C10006F69737475726500543A0043202D204823
:102C20003A0044455441494C533A00537973746512
:102C30006D20696E697469616C697A696E672E2EA0
:102C40002E0057656C636F6D650053797374656D05
:102C5000005469746C6500496E7469616C697A69C5
:102C60006E672E2E2E00444F4E45005F5F5F5F5F04
:102C70005F5F5F5F5F5F5F5F5F5F5F5F5F5F5F5F64
:0E2C80005F5F5F5F5F5F5F5F5F5F5F5F0000D2
:107E0000112484B714BE81FFF0D085E080938100F7
:107E100082E08093C00088E18093C10086E0809377
:107E2000C20080E18093C4008EE0C9D0259A86E02C
:107E300020E33CEF91E0309385002093840096BBD3
:107E4000B09BFECF1D9AA8958150A9F7CC24DD24C4
:107E500088248394B5E0AB2EA1E19A2EF3E0BF2EE7
:107E6000A2D0813461F49FD0082FAFD0023811F036
:107E7000013811F484E001C083E08DD089C08234E0
:107E800011F484E103C0853419F485E0A6D080C0E4
:107E9000853579F488D0E82EFF2485D0082F10E0AE
:107EA000102F00270E291F29000F111F8ED06801E7
:107EB0006FC0863521F484E090D080E0DECF843638
:107EC00009F040C070D06FD0082F6DD080E0C81688
:107ED00080E7D80618F4F601B7BEE895C0E0D1E017
:107EE00062D089930C17E1F7F0E0CF16F0E7DF06D8
:107EF00018F0F601B7BEE89568D007B600FCFDCFD4
:107F0000A601A0E0B1E02C9130E011968C91119780
:107F100090E0982F8827822B932B1296FA010C0160
:107F200087BEE89511244E5F5F4FF1E0A038BF0790
:107F300051F7F601A7BEE89507B600FCFDCF97BE46
:107F4000E89526C08437B1F42ED02DD0F82E2BD052
:107F50003CD0F601EF2C8F010F5F1F4F84911BD097
:107F6000EA94F801C1F70894C11CD11CFA94CF0C13
:107F7000D11C0EC0853739F428D08EE10CD085E9AC
:107F80000AD08FE07ACF813511F488E018D01DD067
:107F900080E101D065CF982F8091C00085FFFCCF94
:107FA0009093C60008958091C00087FFFCCF809118
:107FB000C00084FD01C0A8958091C6000895E0E648
:107FC000F0E098E1908380830895EDDF803219F02E
:107FD00088E0F5DFFFCF84E1DECF1F93182FE3DFCA
:107FE0001150E9F7F2DF1F91089580E0E8DFEE27F6
:047FF000FF270994CA
:027FFE00040479
:00000001FF
