:100000000C94DB000C9403010C9403010C94030189
:100010000C9403010C9403010C9403010C94030150
:100020000C9403010C9403010C9403010C94030140
:100030000C9403010C9403010C9403010C94030130
:100040000C9497090C9403010C9465090C943F09D6
:100050000C9403010C9403010C9403010C94030110
:100060000C9403010C94030100407A10F35A00A091
:10007000724E18090010A5D4E80000E87648170071
:1000800000E40B54020000CA9A3B000000E1F505B1
:10009000000080969800000040420F000000A086FB
:1000A00001000000102700000000E803000000002D
:1000B0006400000000000A000000000001000000D1
:1000C00000002C76D888DC674F0823DFC1DFAE59EB
:1000D000E1B1B796E5E3E453C63AE651997696E87E
:1000E000E6C28426EB898C9B62ED407C6FFCEFBC02
:1000F0009C9F40F2BAA56FA5F490055A2AF75C932D
:100100006B6CF9676DC11BFCE0E40D47FEF520E662
:10011000B500D0ED902E0300943577050080841E45
:10012000080000204E0A000000C80C333333330FA0
:10013000986E12831141EF8D2114893BE65516CF3D
:10014000FEE6DB18D1844B381BF77C1D901DA4BB49
:10015000E424203284725E228100C9F124ECA1E5FE
:100160003D2700000000240027002A0000000000B6
:10017000250028002B0004040404040404040202E3
:100180000202020203030303030301020408102016
:100190004080010204081020010204081020000021
:1001A0000008000201000003040700000000000036
:1001B0000000E109EA0B11241FBECFEFD8E0DEBF3B
:1001C000CDBF13E0A0E0B1E0E4EAF2E202C00590A6
:1001D0000D92A230B107D9F723E0A2E0B3E001C04D
:1001E0001D92AE3DB207E1F710E0CAEDD0E004C0C9
:1001F0002197FE010E94440FC93DD107C9F70E9413
:100200003D0A0C9445110C9400000895AF92BF92E2
:10021000CF92DF92EF92FF920F931F93CF93DF93D2
:100220006C017B018B01040F151FEB015E01AE1801
:10023000BF08C017D10759F06991D601ED91FC9123
:100240000190F081E02DC6010995892B79F7C50150
:10025000DF91CF911F910F91FF90EF90DF90CF90A2
:10026000BF90AF900895FC01538D448D252F30E051
:10027000842F90E0821B930B541710F0CF960895B3
:1002800001970895FC01918D828D981761F0A28DE0
:10029000AE0FBF2FB11D5D968C91928D9F5F9F73A6
:1002A000928F90E008958FEF9FEF0895FC01918D5C
:1002B000828D981731F0828DE80FF11D858D90E0C9
:1002C00008958FEF9FEF0895FC01918D228D892F66
:1002D00090E0805C9F4F821B91098F73992708954E
:1002E00083E193E00E94640121E0892B09F420E07E
:1002F000822F089580E090E0892B29F00E94700100
:1003000081110C9400000895FC01A48DA80FB92F51
:10031000B11DA35ABF4F2C91848D90E001968F732D
:100320009927848FA689B7892C93A089B1898C914C
:10033000837080648C93938D848D981306C002889B
:10034000F389E02D80818F7D80830895EF92FF9265
:100350000F931F93CF93DF93EC0181E0888F9B8DE8
:100360008C8D98131AC0E889F989808185FF15C0A2
:100370009FB7F894EE89FF896083E889F9898081C5
:100380008370806480839FBF81E090E0DF91CF9194
:100390001F910F91FF90EF900895F62E0B8D10E0B6
:1003A0000F5F1F4F0F731127E02E8C8D8E110CC025
:1003B0000FB607FCFACFE889F989808185FFF5CF70
:1003C000CE010E948401F1CFEB8DEC0FFD2FF11DCA
:1003D000E35AFF4FF0829FB7F8940B8FEA89FB89AD
:1003E00080818062CFCFCF93DF93EC01888D88230B
:1003F000B9F0AA89BB89E889F9898C9185FD03C088
:10040000808186FD0DC00FB607FCF7CF8C9185FF6C
:10041000F2CF808185FFEDCFCE010E948401E9CF2C
:10042000DF91CF91089590E0FC01E256FE4F2491B8
:10043000FC01E657FE4F3491FC01EA58FE4FE4916F
:10044000EE23C9F0222339F0233001F1A8F4213042
:1004500019F1223029F1F0E0EE0FFF1FE459FE4FB1
:10046000A591B4918FB7F894EC91611126C03095A5
:100470003E233C938FBF08952730A9F02830C9F060
:10048000243049F7809180008F7D03C080918000E7
:100490008F7780938000DFCF84B58F7784BDDBCFEB
:1004A00084B58F7DFBCF8091B0008F778093B000B3
:1004B000D2CF8091B0008F7DF9CF3E2BDACFCF9392
:1004C000DF9390E0FC01E657FE4F24918A589E4F3F
:1004D000FC0184918823D1F090E0880F991FFC01E2
:1004E000EE59FE4FA591B491FC01E459FE4FC59120
:1004F000D49161110EC09FB7F8948C91E22FE095D2
:100500008E238C932881E223E8839FBFDF91CF91D4
:1005100008958FB7F894EC91E22BEC938FBFF6CF50
:100520003FB7F89480910B0390910C03A0910D03B9
:10053000B0910E0326B5A89B05C02F3F19F0019678
:10054000A11DB11D3FBFBA2FA92F982F8827BC012D
:10055000CD01620F711D811D911D42E0660F771F55
:10056000881F991F4A95D1F708958F929F92AF9255
:10057000BF92CF92DF92EF92FF924B015C010E94FB
:1005800090026B017C010E9490026C197D098E091A
:100590009F09683E734081059105A8F321E0821A06
:1005A0009108A108B10888EEC80E83E0D81EE11CAE
:1005B000F11C81149104A104B10429F7FF90EF907C
:1005C000DF90CF90BF90AF909F908F90089590E074
:1005D00080E00895CF93DF9380E480937C00809146
:1005E0007A00806480937A0080917A0086FDFCCF47
:1005F00080917800C0917900DC2FC82FBE010D2EAC
:10060000000C880B990B0E94520E60930F0370939D
:100610001003809311039093120320E530E0DE0174
:100620000E943D0F2FEF33E040E050E00E94B10EFA
:10063000CA01B9010E94520EDF91CF91089583E162
:1006400093E00E946401892B81F083E193E00E9492
:100650004201682F83E193E00E94A6016AE070E006
:1006600080E090E00E94B502EACF0895CF93DF9337
:10067000EC0160E08E810E94130261E08E810E9495
:10068000130260E08E810E9413028BE891E00197D3
:10069000F1F7DF91CF910895CF92DF92EF92FF9221
:1006A0000F931F93CF93DF936C017C0187E0E80EDB
:1006B000F11CD0E0C0E0062F10E0B8010C2E02C003
:1006C000759567950A94E2F76170F70181917F0152
:1006D0000E9413022196C430D10579F7C601DF913B
:1006E000CF911F910F91FF90EF90DF90CF900C94DE
:1006F0003603CF92DF92EF92FF920F931F93CF9327
:10070000DF93EC01F62E642F8C810E9413028D8101
:100710008F3F19F060E00E9413020F2D10E08F85CB
:1007200084FF25C06E0187E0C80ED11CF12CE12C9E
:10073000B8010E2C02C0759567950A94E2F76170B6
:10074000F60181916F010E941302FFEFEF1AFF0A79
:1007500088E0E816F10461F7CE01DF91CF911F9197
:100760000F91FF90EF90DF90CF900C943603B8017B
:1007700084E0759567958A95E1F7CE010E944C0358
:100780006F2DCE01DF91CF911F910F91FF90EF90D0
:10079000DF90CF900C944C0340E0682F82EC93E004
:1007A0000C947903CF93DF93823029F49091D10395
:1007B00098609093D1038093D5031092D60380E480
:1007C0008093D70380E18093D80380E58093D90399
:1007D00061E08091C6030E945F028091C7038F3F52
:1007E00019F061E00E945F0261E08091C8030E94FD
:1007F0005F02C2ECD3E09E01225C33408091D103C2
:1008000084FD0BC084E090E021962817390744F45A
:1008100061E08E810E945F02EECF88E090E0F4CF2D
:100820008BE39DE00197F1F760E08091C6030E94A1
:10083000130260E08091C8030E9413028091C703F5
:100840008F3F19F060E00E9413028091D10384FD74
:1008500039C063E082EC93E00E944C03CBE4D6E421
:10086000CE010197F1F763E082EC93E00E944C0324
:100870002197F1F763E082EC93E00E944C0383E55B
:1008800092E00197F1F762E082EC93E00E944C0362
:100890008091D10380620E94CC0384E08093D203D4
:1008A0008CE00E94CC0381E00E94CC038BE39FE1AB
:1008B0000197F1F782E08093D30386E0DF91CF9137
:1008C0000C94CC0380620E94CC038BE496E40197E5
:1008D000F1F78091D10380620E94CC0383E592E01E
:1008E0000197F1F78091D10380620E94CC03D0CFB1
:1008F00041E00E94790381E090E0089542E050E0F9
:1009000065E271E083E193E00C940601CF93DF93FD
:10091000FC0101900020E9F73197AF01481B590B0A
:10092000BC0183E193E00E940601EC010E947E0479
:100930008C0F9D1FDF91CF910895CF93DF93FC0122
:10094000448155816081718183E193E00E940601B9
:10095000EC010E947E048C0F9D1FDF91CF910895C2
:100960000F931F93CF93DF938C01EB01FC018081E8
:1009700091810097E1F06881798161157105A9F095
:10098000428153812C813D814217530770F00E94B0
:100990003E118C819D81F801958384831D821C8288
:1009A000DF91CF911F910F9108950E94E60F8881EA
:1009B0009981F801918380838A819B8193838283CB
:1009C0008C819D8195838483198218821B821A826F
:1009D000E5CFCF93DF93EC0188819981009711F0E7
:1009E0000E94E60F198218821D821C821B821A82C5
:1009F000DF91CF910895FC0180819181009711F0E2
:100A00000C94E60F08950F931F93CF93DF93EC019F
:100A100088819981009759F02A813B8126173707F1
:100A200030F081E0DF91CF911F910F9108958B01FC
:100A30006F5F7F4F0E946F10009759F099838883F2
:100A40001B830A832C813D81232B59F7FC011082E3
:100A5000E8CF80E0E7CFEF92FF920F931F93CF9301
:100A6000DF936115710541F480E0DF91CF911F9113
:100A70000F91FF90EF90089541155105B1F07B0162
:100A8000EC010C811D81040F151FB8010E940305A4
:100A9000882351F3288139818C819D81B701820F90
:100AA000931F0E943E111D830C8381E0DECFCF9304
:100AB000DF93EC01FB0101900020E9F73197AF01D2
:100AC000461B570B0E942B05811103C0CE010E94CB
:100AD000E904CE01DF91CF910895CF93DF93EC012C
:100AE000FB0144815581608171810E942B05811138
:100AF00003C0CE010E94E904CE01DF91CF91089599
:100B0000EF92FF920F931F93CF93DF93EC017B0142
:100B10008A01BA010E94030581110BC0CE010E9417
:100B2000E904CE01DF91CF911F910F91FF90EF90DB
:100B300008951D830C83B701888199810E943E111D
:100B4000F0CFFB01DC0111961C921E9213961C92B1
:100B50001E92129715961C921E921497861797074D
:100B600049F0608171816115710521F044815581E1
:100B70000C9480050895FC01118210821382128268
:100B800015821482FB0101900020E9F73197AF0133
:100B9000461B570B0C948005CF92DF92EF92FF9289
:100BA0000F931F93CF93DF938C017B016A0167E260
:100BB00071E00E94BB05D70114968D919C9100971E
:100BC00019F1E6018C159D0508F4EC01D701ED91B2
:100BD000FC911197EC0FFD1FD08010826D917C91DC
:100BE00061157105D9F0FB0101900020E9F73197FB
:100BF000AF01461B570BC8010E948005F701808199
:100C00009181C80FD91FD882C801DF91CF911F9160
:100C10000F91FF90EF90DF90CF900895C8010E9450
:100C2000E904ECCFAF92BF92CF92DF92EF92FF92A6
:100C30000F931F93CF93DF93CDB7DEB72C970FB6EB
:100C4000F894DEBF0FBECDBF6C018B01FC01848127
:100C500095814197E0F0B601CE0101960E94A10571
:100C600040E150E0BE016F5F7F4FCE0107960E94CA
:100C7000CC05BE01695F7F4FC6010E94B004CE0162
:100C800007960E94FB04CE0101960E94FB04F80126
:100C9000848195814197E0F0B801CE0101960E94D0
:100CA000A10540E150E0BE016F5F7F4FCE01079686
:100CB0000E94CC05BE01695F7F4FC8010E94B0044D
:100CC000CE0107960E94FB04CE0101960E94FB0410
:100CD00020E130E0F601848195815901A81AB90A12
:100CE000B694A794F801848195817901E81AF90AEC
:100CF000F694E79481E00E94CC038BE39FE1019797
:100D0000F1F7E1E08091D5038111E0E0E195F0E0B9
:100D1000EE53FC4F84898A0D80680E94CC03F60153
:100D2000448155816081718182EC93E00E940601CB
:100D3000E091D503E23048F5E150F0E0EE53FC4F8E
:100D400084898E0D80680E94CC03F801448155810E
:100D50006081718182EC93E00E94060164E670E09C
:100D600080E090E00E94B5022C960FB6F894DEBFAA
:100D70000FBECDBFDF91CF911F910F91FF90EF90EC
:100D8000DF90CF90BF90AF900895E1E0D6CF0F9362
:100D90001F93CF93DF9300D000D000D0CDB7DEB744
:100DA0008C0168E271E0CE0101960E94BB05B8019A
:100DB000CE0101960E946D050E949D04CE01019610
:100DC0000E94FB0464E670E080E090E00E94B502BF
:100DD0000E941F0326960FB6F894DEBF0FBECDBF4C
:100DE000DF91CF911F910F910895EF92FF920F9392
:100DF0001F93CF93DF9300D000D000D0CDB7DEB7E4
:100E00007C018B016CE271E0CE0101960E94BB0572
:100E1000B701CE0101960E946D0564E371E00E9466
:100E200057050E949D04CE0101960E94FB0464E6D2
:100E300070E080E090E00E94B5020E941F03C801AC
:100E40000E949D046AE183E193E00E94A6010E9452
:100E50007E046CE271E080E090E00E94B5020E94A6
:100E60001F0326960FB6F894DEBF0FBECDBFDF91ED
:100E7000CF911F910F91FF90EF900895CF92DF9245
:100E8000EF92FF920F931F93CF93DF93CDB7DEB70F
:100E90002C970FB6F894DEBF0FBECDBFFC012481A6
:100EA0003581232B09F448C10081118166E371E08B
:100EB000C8010E943511892B09F04DC16BE371E027
:100EC000CE0101960E94BB0566EB73E0CE01019650
:100ED0000E946D050E949D04CE0101960E94FB04B4
:100EE00066EB73E0CE0107960E94A1056CE671E007
:100EF000CE0101960E94BB05BE01695F7F4FCE0106
:100F000001960E941206CE0101960E94FB04CE01BA
:100F100007960E94FB0466EB73E0CE0101960E94E7
:100F2000A105CE0101960E94C706CE0101960E943E
:100F3000FB048CE691E00E9486048FB7F894C09081
:100F40000703D0900803E0900903F0900A038FBFD5
:100F500010920203109203031092040310920503EF
:100F600067E771E0CE0107960E94BB0560E871E07B
:100F7000CE0101960E94BB05BE01695F7F4FCE0185
:100F800001960E941206CE0101960E94FB04CE013A
:100F900007960E94FB0461E084E00E94130261E076
:100FA00087E00E94130264E670E080E090E00E9417
:100FB000B50260E084E00E94130260E087E00E94D6
:100FC00013022FB7F8948091070390910803A09122
:100FD0000903B0910A032FBF8C199D09AE09BF09FF
:100FE00089389341A105B105E0F40E94EA0220E0AE
:100FF00030E040EA52E40E944B0E87FFA9CF0E94E6
:101000007E048AE891E00E94860480E090E0A0E8F7
:10101000BFE38093020390930303A0930403B09370
:10102000050320E030E0A901609102037091030301
:1010300080910403909105030E944B0E81117CC0A6
:1010400063EA71E0CE0101960E94BB0560EB73E09C
:10105000CE0101960E946D050E949D04CE0101966D
:101060000E94FB0460EB73E0CE0107960E94A1058D
:101070006CE671E0CE0101960E94BB05BE01695F7E
:101080007F4FCE0101960E941206CE0101960E946A
:10109000FB04CE0107960E94FB0460EB73E0CE01D7
:1010A00001960E94A105CE0101960E94C706CE01BD
:1010B00001960E94FB048CE691E00E94860464E69F
:1010C00070E080E090E00E94B5020E947E0467E23A
:1010D00071E0CE0107960E94BB0567E271E0CE0188
:1010E00001960E94BB05BE01695F7F4FCE0101964C
:1010F0000E941206CE0101960E94FB04CE010796C3
:101100000E94FB040E94EA0220E030E0A9010E9454
:10111000380F1816E4F60E94EA0220E030E040EAB8
:1011200052E40E944B0E87FFD2CF83EE91E00E94E3
:10113000860481E0809300012C960FB6F894DEBF00
:101140000FBECDBFDF91CF911F910F91FF90EF9018
:10115000DF90CF90089567E072E0C8010E943511DA
:10116000892B51F76FE072E0CE0101960E94BB051A
:1011700066EB73E0CE0101960E946D0561E472E0BA
:101180000E94570560EB73E00E946D050E949D046C
:10119000CE0101960E94FB046CEB73E0CE01079632
:1011A0000E94A10566EB73E0CE0101960E94A105A5
:1011B000BE01695F7F4FCE0101960E94F506CE0108
:1011C00001960E94FB04CE0107960E94FB0466EB89
:1011D00073E0CE0107960E94A10567E472E0CE019C
:1011E00001960E94BB05BE01695F7F4FCE0101964B
:1011F0000E941206CE0101960E94FB04CE010796C2
:101200000E94FB0464E670E080E090E00E94B5027A
:101210006CEB73E0CE0107960E94A10560EB73E0D2
:10122000CE0101960E94A105BE01695F7F4FCE01EC
:1012300001960E94F506CE0101960E94FB04CE01A4
:1012400007960E94FB0460EB73E0CE0107960E94B4
:10125000A10567E472E0CE0101960E94BB05BE01C4
:10126000695F7F4FCE0101960E941206CE01019662
:101270000E94FB04CE0107960E94FB045DCF1F92E3
:101280000F920FB60F9211242F933F934F935F93BA
:101290006F937F938F939F93AF93BF93EF93FF933E
:1012A00083E193E00E948401FF91EF91BF91AF91A0
:1012B0009F918F917F916F915F914F913F912F916E
:1012C0000F900FBE0F901F9018951F920F920FB6A0
:1012D0000F9211242F938F939F93EF93FF93E0919D
:1012E0002303F09124038081E0912903F0912A03E4
:1012F00082FD1BC0908180912C038F5F8F732091A2
:101300002D03821741F0E0912C03F0E0ED5EFC4FDD
:10131000958F80932C03FF91EF919F918F912F9147
:101320000F900FBE0F901F9018958081F4CF1F92E1
:101330000F920FB60F9211242F933F938F939F9389
:10134000AF93BF938091070390910803A091090385
:10135000B0910A033091060323E0230F2D3758F58F
:101360000196A11DB11D209306038093070390935E
:101370000803A0930903B0930A0380910B03909193
:101380000C03A0910D03B0910E030196A11DB11D98
:1013900080930B0390930C03A0930D03B0930E0363
:1013A000BF91AF919F918F913F912F910F900FBE61
:1013B0000F901F90189526E8230F0296A11DB11DCE
:1013C000D2CFE3E1F3E01382128288EE93E0A0E053
:1013D000B0E084839583A683B7838BE091E091830B
:1013E000808385EC90E09587848784EC90E09787F4
:1013F000868780EC90E0918B808B81EC90E0938BE2
:10140000828B82EC90E0958B848B86EC90E0978BBE
:10141000868B118E128E138E148EE2ECF3E0138203
:1014200012828DE191E0918380838DE084838FEF40
:1014300085838CE086838BE087838AE0808789E0E0
:10144000818788E08287138614861586168617861C
:1014500081E00E94D20364E572E08CEB93E00E948D
:10146000BB056AE772E086EB93E00E94BB0568E883
:1014700072E080EB93E00C94BB05CF93DF93CDB784
:10148000DEB7E3970FB6F894DEBF0FBECDBF7894FA
:1014900084B5826084BD84B5816084BD85B5826079
:1014A00085BD85B5816085BD80916E00816080932A
:1014B0006E00109281008091810082608093810093
:1014C00080918100816080938100809180008160A3
:1014D000809380008091B10084608093B1008091FE
:1014E000B00081608093B00080917A008460809326
:1014F0007A0080917A00826080937A0080917A00ED
:10150000816080937A0080917A00806880937A006D
:101510001092C10061E087E00E945F0260E08EE00F
:101520000E945F0261E084E00E945F02E091230379
:10153000F091240382E08083E0911F03F091200367
:101540001082E0912103F09122038FEC80831092AE
:101550002B03E0912703F091280386E08083E0913C
:101560002503F0912603808180618083E09125032B
:10157000F0912603808188608083E0912503F091BB
:101580002603808180688083E0912503F091260303
:1015900080818F7D808382E00E94D20386E992E081
:1015A0000E94860467E271E0CE0101960E94BB05AD
:1015B0006DEA72E0CE0182960E94BB05BE016F5FAC
:1015C0007F4FCE0182960E941206CE0182960E9423
:1015D000FB04CE0101960E94FB0464E670E080E00B
:1015E00090E00E94B50265EB72E0CE0101960E9488
:1015F000BB0565EC72E0CE0182960E94BB05BE0180
:101600006F5F7F4FCE0182960E941206CE018296B6
:101610000E94FB04CE0101960E94FB0464EF71E07E
:1016200080E090E00E94B5028CEC92E00E9486047B
:1016300064E670E080E090E00E94B5020E941F0323
:1016400086ED92E00E94860464E670E080E090E01F
:101650000E94B5020E941F0388EE92E00E94860459
:101660000E947E0480E0E82E80E0F82E0E94EA02CC
:1016700060930F03709310038093110390931203F0
:101680001BA21AA21DA21CA21FA21EA28E010F5FE6
:101690001F4F22E044E00E94F60B009709F47CC043
:1016A000FC0101900020E9F73197AF01481B590B6D
:1016B000BC01CE0182960E9480056DEE72E0CE01E3
:1016C00088960E94BB05BE016E5D7F4FCE01889655
:1016D0000E946D0564EF72E00E945705BC01CE01C7
:1016E00001960E94A10568EF72E0CE018E960E94DD
:1016F000BB05BE016F5F7F4FCE018E960E94120622
:10170000CE018E960E94FB04CE0101960E94FB043E
:10171000CE0188960E94FB04CE0182960E94FB04B3
:1017200080900F0390901003A0901103B0901203CB
:1017300020E030E040E752E4C501B4010E94380FD8
:1017400018167CF520E030E040EA52E4C501B4010F
:101750000E944B0E87FF25C080910001882381F0F5
:1017600067E072E0CE0101960E94BB05CE010196B2
:101770000E943E07CE0101960E94FB0410920001D8
:10178000E114F10409F472CF0E947001882309F476
:101790006DCF0E9400006ACFCE0182960E94E904BC
:1017A0008CCF20E030E040EA52E4C501B4010E9451
:1017B000380F87FDE5CF66E371E0CE0101960E9408
:1017C000BB05CE0101960E943E07CE0101960E9404
:1017D000FB04D6CF80EB93E00E94FB0486EB93E002
:1017E0000E94FB048CEB93E00C94FB04EF920F93AC
:1017F0001F93CF93DF93E80134E047FD34E1042EDB
:10180000000C550B57FF03C0519541955109E32E2C
:10181000022F242FAE010E94140CCE01DF91CF9134
:101820001F910F91EF900895A9E0B0E0EAE1FCE08C
:101830000C94D60E6A01F22EB02E102FFBE3AF2EC1
:10184000A01608F41BE31F5F012F27E0AE014F5FD6
:101850005F4F0E94730DBC018981982F9970913060
:1018600009F43FC09BE2E1FC04C09E2D9170E0FCB6
:101870003AC05E2D5071E82FE87083FF46C084E0C7
:10188000911101C083E0EF2DE81B8F1508F0E0E017
:10189000D6018E2F20E2552351F1992329F0D6014C
:1018A0009C93C60101966C0196012D5F3F4FE2FEAD
:1018B00024C08EE4D6018C9391E411969C931197E9
:1018C00012968C93D9018E2F90E281111BC0E20FEA
:1018D000F32FF11D10828EEF9FEF2996ECE00C9410
:1018E000F20E9DE2C6CF90E2C4CF2D9381508111BC
:1018F000FCCFCE0ED11CE0E0D0CF8EE6D6018C938B
:1019000091E6DBCF9D938150E0CF482F447082FF5A
:101910003DC084E0911101C083E08F1510F4EF2DDC
:10192000E81BD6018E2F20E2552309F1992329F0D7
:10193000D6019C93C60101966C0196012D5F3F4F25
:10194000E2FE1BC089E4D6018C938EE411968C9341
:10195000119786E412968C93D9018E2F90E28823FA
:1019600009F4B5CF9D938150FACF2D938150811109
:10197000FCCFCE0ED11CE0E0D9CF89E6D6018C9306
:101980008EE611968C93119786E6E4CF9B0177FF44
:1019900002C030E020E0A1E0B0E0911102C0B0E070
:1019A000A0E0F9013196AE0FBF1F8B2C912CBB200C
:1019B00009F461C05401EFEFAE1ABE0AAA0DBB1DB7
:1019C000FA161B0619F014F04F2D4A1B511188C04E
:1019D000E3FC59C07601A42FB0E2A1114FC0C40EA0
:1019E000D11C992309F45BC040E0D6011196F601A1
:1019F00090836D01552309F448C0012F060F9A8189
:101A0000582F507184FF03C0913309F40150101610
:101A10000CF047C0093008F008E0EEE2FE2E5B0152
:101A2000A01AB10885019194819491082F3F320743
:101A300029F4D601FC92F60131966F016217730703
:101A400094F1021713077CF5DB01A21BB30BAA2448
:101A5000A394B12CAC0EBD1EAA0DBB1D11968C918A
:101A600021503109D601119628153905F4F0F601F7
:101A700080836D01DBCFB12CA12CA0CFF701B193F6
:101A80007F01A150AACF9111B0CFD601942F50E37E
:101A900002C05D9391509111FCCFC40ED11C40E067
:101AA000ACCF01E0BACF80E3DBCF6217730731F42C
:101AB000963388F4953311F4552369F0F601808349
:101AC000FD01842F90E2811108C0A40FB11D1C926A
:101AD00090E080E002CF81E3F1CF91938150F3CF8A
:101AE000911183CF8ACF283008F027E03327DA011D
:101AF000990F311D87FD916000966105710539F4DC
:101B000032602E5F3D9330E32A95E1F708959F3FC1
:101B100030F080387105610509F03C5F3C5F3D9312
:101B2000913008F08068911DDF93CF931F930F933E
:101B3000FF92EF92192F987F9695E92F969596959B
:101B4000E90FFF27EE53FF4F99273327EE24FF2499
:101B5000A701E70105900894079428F4360FE71EC3
:101B6000F81E491F511D660F771F881F991F069485
:101B7000A1F70590079428F4E70EF81E491F561F99
:101B8000C11D770F881F991F661F0694A1F7059046
:101B9000079428F4F80E491F561FC71FD11D880F40
:101BA000991F661F771F0694A1F70590079420F4EC
:101BB000490F561FC71FD81F990F661F771F881F11
:101BC0000694A9F784911095177041F0D695C795A2
:101BD00057954795F794E7941A95C1F7E8E6F0E032
:101BE00068941590159135916591959105907FE2D6
:101BF0007395E118F10A430B560BC90BD009C0F7D6
:101C0000E10CF11E431F561FC91FD01D7EF4703317
:101C100011F48A95E6CFE894015030F0080F0AF4E9
:101C20000027021708F4202F2395022F7A3328F07B
:101C300079E37D932A95E9F710C07D932A9589F67B
:101C4000069497956795379517951794E118F10ABB
:101C5000430B560BC90BD00998F023957E917395D1
:101C60007A3308F070E37C932013B8F77E917061AB
:101C70007D9330F0839571E37D9370E32A95E1F7CE
:101C80001124EF90FF900F911F91CF91DF91992731
:101C900087FD909508950E948D0E08F481E00895C7
:101CA000E89409C097FB3EF49095809570956195F6
:101CB0007F4F8F4F9F4F9923A9F0F92F96E9BB27AC
:101CC0009395F695879577956795B795F111F8CF28
:101CD000FAF4BB0F11F460FF1BC06F5F7F4F8F4F93
:101CE0009F4F16C0882311F096E911C0772321F089
:101CF0009EE8872F762F05C0662371F096E8862F21
:101D000070E060E02AF09A95660F771F881FDAF777
:101D1000880F9695879597F90895990F0008550FA4
:101D2000AA0BE0E8FEEF16161706E807F907C0F061
:101D300012161306E407F50798F0621B730B840B69
:101D4000950B39F40A2661F0232B242B252B21F443
:101D500008950A2609F4A140A6958FEF811D811DE3
:101D60000895052E97FB1EF400940E94C80E57FD9F
:101D700007D00E94070F07FC03D04EF40C94C80E46
:101D800050954095309521953F4F4F4F5F4F0895A7
:101D900090958095709561957F4F8F4F9F4F0895D7
:101DA0002F923F924F925F926F927F928F929F926B
:101DB000AF92BF92CF92DF92EF92FF920F931F9359
:101DC000CF93DF93CDB7DEB7CA1BDB0B0FB6F8940A
:101DD000DEBF0FBECDBF09942A88398848885F844A
:101DE0006E847D848C849B84AA84B984C884DF80BB
:101DF000EE80FD800C811B81AA81B981CE0FD11D9F
:101E00000FB6F894DEBF0FBECDBFED010895A1E27D
:101E10001A2EAA1BBB1BFD010DC0AA1FBB1FEE1F64
:101E2000FF1FA217B307E407F50720F0A21BB30BAF
:101E3000E40BF50B661F771F881F991F1A9469F72B
:101E400060957095809590959B01AC01BD01CF0187
:101E50000895A29FB001B39FC001A39F700D811D83
:101E60001124911DB29F700D811D1124911D0895A3
:101E70000E948D0E08F48FEF08950E94290FB7FF7E
:101E80000895821B930B0895EE0FFF1F0590F491A8
:101E9000E02D09940F931F93CF93DF938230910528
:101EA00010F482E090E0E091DC03F091DD0330E09B
:101EB00020E0B0E0A0E0309799F42115310509F455
:101EC0004AC0281B390B24303105D8F58A819B8103
:101ED0006115710589F1FB0193838283FE0111C0B5
:101EE000408151810281138148175907E0F048175A
:101EF000590799F4109761F012960C931297139664
:101F00001C933296CF01DF91CF911F910F910895CD
:101F10000093DC031093DD03F4CF2115310551F05C
:101F20004217530738F0A901DB019A01BD01DF0117
:101F3000F801C1CFEF01F9CF9093DD038093DC036B
:101F4000CDCFFE01E20FF31F81939193225031090F
:101F500039832883D7CF2091DA033091DB03232BF9
:101F600041F420910301309104013093DB0320936D
:101F7000DA0320910101309102012115310541F46C
:101F80002DB73EB74091050150910601241B350B3A
:101F9000E091DA03F091DB03E217F307A0F42E1BC4
:101FA0003F0B2817390778F0AC014E5F5F4F2417BD
:101FB000350748F04E0F5F1F5093DB034093DA0361
:101FC000819391939FCFF0E0E0E09CCFCF93DF939C
:101FD0000097E9F0FC01329713821282A091DC0392
:101FE000B091DD03ED0130E020E01097A1F42081F5
:101FF0003181820F931F2091DA033091DB03281780
:10200000390709F061C0F093DB03E093DA03DF9155
:10201000CF910895EA01CE17DF07E8F54A815B8189
:102020009E0141155105B1F7E901FB83EA8349910E
:102030005991C40FD51FEC17FD0761F48081918180
:102040000296840F951FE901998388838281938189
:102050009B838A83F0E0E0E012968D919C91139728
:102060000097B9F52D913C911197CD010296820F01
:10207000931F2091DA033091DB032817390739F6D3
:10208000309751F51092DD031092DC03B093DB031F
:10209000A093DA03BCCFD383C28340815181840FE4
:1020A000951FC817D90761F44E5F5F4F88819981EA
:1020B000480F591F518340838A819B819383828378
:1020C0002115310509F0B0CFF093DD03E093DC0377
:1020D0009ECFFD01DC01C0CF13821282D7CFB0E0CA
:1020E000A0E0E5E7F0E10C94D20E8C01009751F4EA
:1020F000CB010E944A0F8C01C801CDB7DEB7E0E1E9
:102100000C94EE0EFC01E60FF71F9C0122503109E2
:10211000E217F30708F49DC0D901CD91DC91119726
:10212000C617D70798F0C530D10530F3CE01049714
:102130008617970708F3C61BD70B2297C193D19335
:102140006D937C93CF010E94E60FD6CF5B01AC1A52
:10215000BD0A4C018C0E9D1EA091DC03B091DD03E5
:10216000512C412CF12CE12C109731F58091DA03A0
:102170009091DB038815990509F05CC04616570657
:1021800008F058C08091010190910201009741F43C
:102190008DB79EB74091050150910601841B950BA8
:1021A000E817F90708F055C0F093DB03E093DA0372
:1021B000F90171836083A0CF8D919C911197129644
:1021C0006C90129713967C901397A815B90559F542
:1021D0006C0142E0C40ED11CCA14DB0420F1AC0136
:1021E0004A195B09DA011296159780F062827382B0
:1021F00051834083D9016D937C93E114F10471F014
:10220000D7011396FC93EE93129776CF22968C0FFC
:102210009D1FF90191838083F301EFCFF093DD03DC
:10222000E093DC0369CF4816590608F42C017D01C0
:10223000D3019ACFCB010E944A0F7C01009749F04D
:10224000AE01B8010E942C11C8010E94E60F87015F
:1022500053CF10E000E050CFFB01DC0102C0019041
:102260000D9241505040D8F70895FB01DC018D914B
:10227000019080190110D9F3990B0895FB01DC013D
:1022800001900D920020E1F7089510E0CAEDD0E032
:1022900004C0FE010E94440F2196CB3DD107C9F72F
:0422A000F894FFCFE0
:1022A400010000DE03800000000000A601060133E7
:1022B40001F30164014201560100000000780406A4
:1022C40001E70205010D0A004154440041542B4327
:1022D4004D47533D220063616C6C00537973746500
:1022E4006D2069732066756C6C204E6F772C206DA1
:1022F400616B696E672063616C6C20616C657274DC
:1023040020746F206E756D626572200043616C6C81
:10231400696E672E2E2E00636F6D706C6574650098
:102324004F7065726174696F6E0053797374656D73
:1023340020646574656374206E65772077656967CA
:102344006874004166746572206C6F6E6720646502
:102354006C61792077697468206E6F207265737080
:102364006F6E73652C206D616B696E672063616CA1
:102374006C20616C65727420746F206E756D62657B
:1023840072200053797374656D2064657465637499
:10239400206E65772077656967687420746F206D97
:1023A400656173757265006D65737361676500536C
:1023B400797374656D2069732061626F757420741C
:1023C4006F20636F6D706C6574652073656E6469EE
:1023D4006E6720736D7320616C65727420746F2056
:1023E4000020616E6420004D65737361676520731E
:1023F400656E740020494E464F3A200A2053797383
:1024040074656D2069732061626F757420746F2028
:10241400636F6D70656C657465002B3235353734C8
:1024240034393532323639002B323535363132399A
:1024340036323236390053797374656D20696E69AA
:102444007469616C697A696E672E2E2E0057656C0B
:10245400636F6D6500496E697469616C697A696E50
:10246400672E2E2E0053797374656D0041542B43EF
:102474004D47463D310041542B434E4D493D322C8E
:10248400322C302C302C3000444F4E45004D6173BB
:10249400733A2000206B670044455441494C532053
:0224A400000036
:00000001FF
